:100000001AC032C031C030C02FC02EC0F4C02CC0C6
:100010002BC02AC029C028C027C026C025C024C0A4
:1000200023C022C021C00000FF0000000001010029
:10003000000000FF000011241FBECFEDCDBF10E077
:10004000A0E6B0E0EAE4F6E002C005900D92AC361E
:10005000B107D9F710E0ACE6B0E001C01D92AC37B3
:10006000B107E1F75DD2EFC2CBCF80FF0BC0909A12
:1000700081FF0BC0919A82FF0BC0929A83FD0BC047
:1000800093980895909881FDF5CF919882FDF5CFD2
:10009000929883FFF5CF939A0895959A80ED97E013
:1000A000FC013197F1F795980197F1F70895809148
:1000B0007200880F880F8C7080937200B09B03C011
:1000C000826080937200B19B03C081608093720054
:1000D000E82FFF27E7FDF095EA5DFF4FE49180915F
:1000E0007B00E80FE0937B000895F89480917B00FB
:1000F00010927B007894089510926F0041E020E008
:1001000030E01AC080916E00842381F080916C00F1
:10011000842B80936C0090916E00842F80958923AE
:1001200080936E00F901ED58FF4F10822F5F3F4F13
:100130002830310549F1440F86B390E0F901E05AC7
:10014000FF4F008002C0959587950A94E2F780FDE5
:10015000D9CF80916E00842B80936E00F901ED5809
:10016000FF4F8081803540F080818035F9F68091A5
:100170006D00842B80936D0080818F5F80832F5F63
:100180003F4F28303105B9F60895582FF8948091E3
:100190006C0040916C0021E030E0052E02C0220F7F
:1001A000331F0A94E2F72095242320936C0078945F
:1001B00090E002C0959587955A95E2F78170089571
:1001C000582FF89480916D0040916D0021E030E04F
:1001D000052E02C0220F331F0A94E2F72095242334
:1001E00020936D00789490E002C0959587955A957C
:1001F000E2F78170089578941F920F920FB60F92D4
:1002000011242F933F934F935F936F937F938F931B
:100210009F93AF93BF93EF93FF9349DF80916F005C
:100220008823B1F080916F00815080936F00FF911F
:10023000EF91BF91AF919F918F917F916F915F915E
:100240004F913F912F910F900FBE0F901F901895D7
:1002500053DFEDCF949809DF959A80ED97E0FC018C
:100260003197F1F795980197F1F70895FF920F9361
:100270001F93F62E9498F9DE959A00ED17E0C801C9
:100280000197F1F79598C8010197F1F78F2DEDDEF1
:10029000959AC8010197F1F79598C8010197F1F770
:1002A0001F910F91FF9008950F931F938C9A8D9A31
:1002B00081B38F6081BB80E49CE90197F1F780E313
:1002C000C9DF00E117E2C8010197F1F780E3C2DF5F
:1002D000C8010197F1F782E0BDDF82E068E0C6DF88
:1002E00080E06CE0C3DF80E066E0C0DF80E061E0DA
:1002F000BDDF1F910F910895682F82958F706F70E9
:10030000B5DF089580E061E0B1DF0895962F906831
:10031000682F6295660F660F607C692B862F829529
:100320008F706F70A3DF0895FF920F931F93F82EC5
:10033000862F949A9ADE959A00ED17E0C8010197EE
:10034000F1F79598C8010197F1F78F2D8EDE959AF8
:10035000C8010197F1F79598C8010197F1F71F912E
:100360000F91FF900895682F8F7062956F70DCDF9A
:100370000895CF92DF92FF920F931F93DF93CF9355
:1003800000D000D00F92CDB7DEB78C0197FD33C0FF
:10039000009771F184E0F82E6E010894C11CD11C05
:1003A000F601EF0DF11DC8016AE070E039D18083DC
:1003B000C8016AE070E034D18B01FA941616170672
:1003C0007CF3F394F601EF0DF11D8081805DCBDFAE
:1003D00083E08F15B0F70F900F900F900F900F9054
:1003E000CF91DF911F910F91FF90DF90CF900895F3
:1003F00080E3B9DFF0CF8DE2B6DF109501951F4F96
:10040000C9CFEF92FF921F93DF93CF9300D000D01C
:100410000F92CDB7DEB79C01009751F114E07E0139
:100420000894E11CF11CF701E10FF11DC9016AE01C
:1004300070E0E2D08083C9016AE070E0DDD09B010A
:1004400011506115710579F71F5FF701E10FF11D7B
:100450008081805D88DF1430B8F30F900F900F908B
:100460000F900F90CF91DF911F91FF90EF90089523
:1004700080E379DFF2CFFF920F931F93CF93DF9347
:10048000062FF72E142F880F880F880F806434DF13
:10049000112351F0802F9F2D9C01E901899163DF89
:1004A0009E01201B2117D0F380E826DFDF91CF913A
:1004B0001F910F91FF900895DF93CF93CDB7DEB7D3
:1004C00028970FB6F894DEBF0FBECDBFBE016F5F99
:1004D0007F4FDB01E3E6F0E088E001900D92815070
:1004E000E1F781E048E0C7DF28960FB6F894DEBF59
:1004F0000FBECDBFCF91DF9108951F93182F80912C
:1005000070006091710002DF80E22DDF8091700049
:10051000612FFCDE83E227DF109371001F910895A5
:100520008FEF81BB17BA88BB83B7846083BF89B75D
:10053000826089BF7894B8DEE5DEBEDF0CC081E062
:1005400024DE8823C1F482E020DE8823D1F480E019
:1005500037DE8823E1F4F89480917B0010927B00D1
:10056000789480E012DE882351F381E3FCDE81E0A1
:100570000CDE882341F382E3F6DE82E006DE882388
:1005800031F383E3F0DE80E01BDE882321F3BADE63
:100590008EE3E9DEE0CFCF93DF93EC016881662341
:1005A00049F0862F8F7062956F70BEDE219668814C
:1005B0006623B9F7DF91CF910895CF93DF93FC01C4
:1005C000EC0184911816ACF4682F772767FD7095BD
:1005D000607F70707595679575956795759567954A
:1005E000759567958F70A0DE2196FE01849118168F
:1005F0005CF3DF91CF910895AA1BBB1B51E107C0AB
:10060000AA1FBB1FA617B70710F0A61BB70B881FA2
:10061000991F5A95A9F780959095BC01CD01089531
:1006200097FB092E07260AD077FD04D0E5DF06D018
:1006300000201AF4709561957F4F0895F6F7909514
:0A06400081959F4F0895F894FFCFB5
:0C064A000203041F1F1F1F1F1F1F1F00A3
:00000001FF
