:100000001AC027C0F5C025C024C023C0CCC021C061
:1000100020C01FC01EC01DC01CC01BC01AC019C0FC
:1000200018C017C016C00000FF000000000101004A
:10003000000000FF000011241FBECFEDCDBF10E077
:10004000A0E6B0E001C01D92AE36B107E1F727D1BE
:100050003BC1D6CF80916400880F880F8C7080934D
:100060006400859B03C0826080936400869B03C00C
:10007000816080936400E82FFF27E7FDF095EA5D3B
:10008000FF4FE49180916D00E80FE0936D000895BB
:1000900089B78D7F89BF80916D0010926D0099B7EF
:1000A000926099BF089541E020E030E014C0809153
:1000B0006200842B80936200F901EB59FF4F80812D
:1000C000803568F18081803529F12F5F3F4F2830DE
:1000D0003105F9F0440F86B3842349F7809162001B
:1000E000842399F3F901EB59FF4F80818823D9F4D8
:1000F00080916000842B8093600090916200842F37
:1001000080958923809362002F5F3F4F283031050F
:1001100009F7089580916100842B809361008081AC
:100120008F5F8083D2CF1082E8CF582F89B78D7F21
:1001300089BF809160004091600021E030E0052E91
:1001400002C0220F331F0A94E2F720952423209344
:10015000600029B7226029BF90E002C0959587957D
:100160005A95E2F781700895582F89B78D7F89BF1E
:10017000809161004091610021E030E0052E02C0D5
:10018000220F331F0A94E2F7209524232093610065
:1001900029B7226029BF90E002C0959587955A95AE
:1001A000E2F78170089578941F920F920FB60F9224
:1001B00011242F933F934F935F936F937F938F936C
:1001C0009F93AF93BF93EF93FF9344DF6CDFFF9157
:1001D000EF91BF91AF919F918F917F916F915F91BF
:1001E0004F913F912F910F900FBE0F901F90189538
:1001F0001F920F920FB60F9211242F933F934F939C
:100200005F936F937F938F939F93AF93BF93EF937E
:10021000FF93809163008830C0F18091630080314A
:1002200060F1809163008831B8F589B78D7F89BF0F
:1002300020916D0010926D0089B7826089BF809116
:10024000630030E090E0409702C0359527958A958D
:10025000E2F720FD18C09498FF91EF91BF91AF9104
:100260009F918F917F916F915F914F913F912F91CE
:100270000F900FBE0F901F901895809163008850CB
:1002800073DF882341F3949AE7CF809163004DDFB9
:10029000882309F3949AE0CF10926300DDCF85B7ED
:1002A0008C6085BF8BB780688BBF80E181BB87EE98
:1002B00082BB17BA8FEF88BB83B7846083BF89B7CF
:0C02C000826089BF7894FFCFF894FFCFD4
:00000001FF
