:100000001AC032C032C130C02FC02EC0EEC02CC0CA
:100010002BC02AC029C028C027C026C025C024C0A4
:1000200023C022C021C00000FF0000000001010029
:10003000000000FF000011241FBECFEDCDBF10E077
:10004000A0E6B0E0EAEAF3E002C005900D92A43623
:10005000B107D9F710E0A4E6B0E001C01D92A937BE
:10006000B107E1F78BD19FC1CBCF80916F0099276A
:1000700087FD9095880F991F880F991F8F7099277A
:1000800080936F00869B03C0826080936F00859B86
:1000900005C080916F00816080936F00E0916F00D8
:1000A000FF27E7FDF095EA5DFF4FE491809178002E
:1000B000E80FE0937800089589B78D7F89BF80911C
:1000C00078001092780099B7926099BF089580E007
:1000D00090E041E026B3242321F520916C00242BED
:1000E00020936C00FC01E059FF4F5081503538F4EB
:1000F000FC01E059FF4F20812F5F20832DC0FC01C0
:10010000E059FF4F5081503539F550916D00542B17
:1001100050936D00FC01E059FF4F20812F5F208339
:100120001BC020916C002423B9F0FC01E059FF4F63
:100130002081203530F420916E00242B20936E0016
:1001400004C0FC01E059FF4F108220916C00342F55
:100150003095232320936C00440F0196883091053D
:1001600009F0B8CF089599B79D7F99BF20916E008F
:1001700090916E0061E070E0AB01082E02C0440F68
:10018000551F0A94E2F74095492340936E0099B7B2
:10019000926099BF30E0A90102C0559547958A95B4
:1001A000E2F7CA018170089599B79D7F99BF2091A8
:1001B0006D0090916D0061E070E0AB01082E02C00F
:1001C000440F551F0A94E2F74095492340936D0070
:1001D00099B7926099BF30E0A90102C05595479543
:1001E0008A95E2F7CA018170089578941F920F9260
:1001F0000FB60F9211242F933F934F935F936F93FA
:100200007F938F939F93AF93BF93EF93FF932DDFD4
:100210005EDF80916B00811117C080916E0090911C
:100220006D0020917800392F20E0A901482BCA01E8
:10023000AA2797FDA095BA2F809367009093680036
:10024000A0936900B0936A00FF91EF91BF91AF91C5
:100250009F918F917F916F915F914F913F912F91DE
:100260000F900FBE0F901F9018951F920F920FB610
:100270000F9211242F933F934F935F936F937F932C
:100280008F939F93AF93BF93EF93FF9380916B00F6
:100290008830D0F480916B00811106C080916E008F
:1002A0008093660010926E008091660020916B0032
:1002B00090E002C0959587952A95E2F780FF02C0ED
:1002C000949A40C094983EC080916B008031E8F4CD
:1002D00080916B00883031F480916D0080936500CF
:1002E00010926D002091650080916B0030E090E0ED
:1002F0000897A90102C0559547958A95E2F740FFF6
:1003000002C0949A1FC094981DC080916B008831E0
:10031000C8F480916B00803119F4CEDE80936400C4
:100320002091640080916B0030E090E04097A9013B
:1003300002C0559547958A95E2F740FF02C0949A0E
:1003400001C0949880916B008F5F80936B008091C7
:100350006B00883111F410926B00FF91EF91BF9107
:10036000AF919F918F917F916F915F914F913F914D
:100370002F910F900FBE0F901F90189585B78C602E
:1003800085BF8BB780688BBF80E181BB87EE82BB66
:1003900017BA8FEF88BB83B7846083BF89B7826049
:0A03A00089BF7894FFCFF894FFCFD7
:0403AA00010000004E
:00000001FF
