:100000000C94E8020C9405030C9405030C948E0CDC
:100010000C9405030C9405030C9405030C94050340
:100020000C9405030C9405030C9405030C94050330
:100030000C9405030C9405030C9405030C94050320
:100040000C9405030C9405030C9405030C94050310
:100050000C94050300000000000000000000E0FF19
:100060007F00000000007C00E001000000000700AD
:10007000000700000080F1FF7F1C000000C03C0072
:10008000E0310000003007000067000000F80100C8
:1000900000F80000003C000000E00100000C00F04F
:1000A00003800300000680FF0F0007000003600EBE
:1000B00070000E0080011C0880010C00C0001A00B6
:1000C0000003180060001F00000E100060803F0059
:1000D000001E300030407F00003E60003020FF00F6
:1000E000006040001020FF0000E0C0001810FF007A
:1000F00000E0C1001878FF0100E0C30118FC1F00F8
:100100000038C6019CF30F000038C401DCF307007F
:100110000000DC01DCF3030000E0DE01DCF30100A1
:1001200000F0DE01DCF7000000F0DE01DCE700009B
:1001300000F8DE01DCE7000000FCDE01DC67000007
:10014000007CDE01FC6F0000007CDE01FC0F000083
:10015000007EFF01FC0F0000007EFF01F80F000091
:10016000007EFF01F04F0000007CFF00F02F000038
:10017000007C7F00C02F0000007C1F00C02F00000B
:1001800000781F00C06F000000301F00C0C77C0057
:1001900000001F00C087FF0000001F00C007FF0114
:1001A00000001F008007FE0700001E008003FE0FF6
:1001B00000000E00000CFE3F000002000008FEFFE1
:1001C000010001000018FEFF078001000030FCFF65
:1001D00007C000000060F8FF0760000000C0F8FFE3
:1001E000033000000080F1FF031800000000E3FF6F
:1001F000030C00000000C6FF030700000000BCFF66
:10020000C00100000000E0FF78000000000000FFD7
:100210001F00000008208001040000000000000012
:100220000001030000020202000200010500000AB2
:100230000A0000000001080000143E143E140001F2
:100240000600081C020C101E040108000016160807
:100250003434000000010300081A020800180801E5
:10026000040000140202021400010400001204043D
:1002700004120001080000082A1C2A0800010800D6
:100280000008083E08080001030000080838080AB2
:10029000010105000000002E000000010200000026
:1002A000002C0001000105000008082402020001E2
:1002B0000600000C1212120C0001050000060404D6
:1002C000040E00010600000E100C021E00010600C4
:1002D000000E100C100E00010600000A0A0A1E088B
:1002E00000010600001E020E100E00010600000CA8
:1002F000020E120C00010600001E1008040400018A
:100300000600000C120C120C00010600000C121C5E
:10031000100C00010200000C111C110C0001030064
:100320000008121812090001050000080402040860
:100330000001050000000E000E0000010500000293
:100340000408040200010600000E100C0004000165
:100350000800001C2A1A021C00010600000C121ED4
:10036000121200010600000E120E120E000106000D
:10037000000C1202120C00010600000E1212120EE6
:1003800000010500000E020E020E00010500000E25
:10039000020E020200010600001C021A120C0001EB
:1003A00006000012121E1212000103000012121A9F
:1003B00012120001060000101010120C00010600BD
:1003C00000120A060A120001050000020202020ED3
:1003D000000108000022362A222200010800002223
:1003E000262A322200010600000C1212120C000113
:1003F0000600000E120E020200010600000C12128E
:10040000120C10010600000E120E0A120001060066
:10041000001C020C100E00010500000E0404040470
:100420000001060000121212120C00010800002246
:10043000221414080001080000222A2A2A140001AC
:1004400008000022140814220001080000221408E9
:10045000080800010500002E0804020E0001040037
:10046000002602020206000105000022020408081C
:100470000001040000260404040600010500002415
:100480000A000000000106000000000000001E013C
:10049000040000020400000010010600000C121EFF
:1004A000121200010600000E120E120E00010600CC
:1004B000000C1202120C00010600000E1212120EA5
:1004C00000010500000E020E020E00010500000EE4
:1004D000020E020200010600001C021A120C0001AA
:1004E00006000012121E1212000103000012121A5E
:1004F00012120001060000101010120C000106007C
:1005000000120A060A120001050000020202020E91
:10051000000108000022362A2222000108000022E1
:10052000262A322200010600000C1212120C0001D1
:100530000600000E120E020200010600000C12124C
:10054000120C10010600000E120E0A120001060025
:10055000001C020C100E00010500000E040404042F
:100560000001060000121212120C00010800002205
:10057000221414080001080000222A2A2A1400016B
:1005800008000022140814220001080000221408A8
:10059000080800010500002E0804020E00010500F5
:1005A000002C0402040C00010300022A0202020AC9
:1005B00002010500002604080406000106000014DC
:1005C0000A000000000105000F090909090F0000D9
:1005D00011241FBECFE5D8E0DEBFCDBF10E0A0E6FE
:1005E000B0E0E6E0FBE102C005900D92AC36B10749
:1005F000D9F715E0ACE6B0E001C01D92A13FB1070C
:10060000E1F70E94DA0C0C94810D0C940000AE9876
:10061000AF98662351F0AD98AC9A8BBBAE9A8CE143
:100620008A95F1F7AE981BBA0895AD9AAC988BBB3A
:10063000AE9A8CE18A95F1F7AE981BBA0895909125
:100640007004AE98AF9A903468F0AD98AC9A8BBBBA
:10065000AE9A8CE18A95F1F7AE981BBA9F5F9093A2
:1006600070040895AD9AAC98F2CFCF93C82F8093C1
:10067000700460E0803450F08FE70E9407038C2FF5
:100680008F7361E08064CF910C94070380640E94B3
:10069000070361E080E4CF910C940703CF93DF93CD
:1006A000C82FD82FD86B60E08D2F0E94070361E020
:1006B0008D2F0E940703C0936F00DF91CF910895A3
:1006C000CF93C82FC06C60E08C2F0E94070361E0BD
:1006D0008C2FCF910C940703A69AA79AA59AA49A57
:1006E0008FEF8ABBAE98AD9AAC98AF9860E08FE37D
:1006F0000E94070361E08FE30E94070380E00E94ED
:10070000600380E00E944E0380E00E943503109257
:100710006F00109270040895CF93DF93D0E080E0D3
:100720000E9435038D2F0E944E03C0E080E00E949E
:100730001F03CF5FC038D1F7DF5FD83081F780E08B
:100740000E94350380E00E944E03109270041092C4
:100750006F00DF91CF910895679566276795680FC1
:10076000E62FE695E695E695F0E0EF58FB4F6770CB
:1007700021E030E0062E01C0220F0A94EAF78081C2
:10078000822B80830895679566276795680F862F6B
:10079000877021E030E001C0220F8A95EAF7669564
:1007A00066956695E62FF0E0EF58FB4F8081822337
:1007B0000895679566276795680FE62FE695E69595
:1007C000E695F0E0EF58FB4F677021E030E0062E31
:1007D00001C0220F0A94EAF7209580812823208304
:1007E0000895982F9F77E62FEF73F0E0F595E79542
:1007F000F595E795F595E795F695FE2FEE27F79594
:10080000E795E90FF11DE059FF4F462F477021E0B2
:1008100030E0D90102C0AA0FBB1F4A95E2F79081D0
:100820009A2B90836695669566956795662767957A
:10083000680FE62FE695E695E695F0E0EF58FB4F5A
:100840006770062E01C0220F0A94EAF78081822B7E
:10085000808308958F77E82FF0E0862F8F7390E0E4
:100860009595879595958795959587959695982FC4
:10087000882797958795E059FF4FE80FF91F677014
:1008800081E090E0062E01C0880F0A94EAF790817B
:1008900089230895982F9F77E62FEF73F0E0F59561
:1008A000E795F595E795F595E795F695FE2FEE27F3
:1008B000F795E795E90FF11DE059FF4F462F477077
:1008C00021E030E0D90102C0AA0FBB1F4A95E2F730
:1008D000AD014095908194239083669566956695C9
:1008E000679566276795680FE62FE695E695E69586
:1008F000F0E0EF58FB4F6770062E01C0220F0A94FC
:10090000EAF78081822B80830895982F9F77E62FC6
:10091000EF73F0E0F595E795F595E795F595E79593
:10092000F695FE2FEE27F795E795E90FF11DE059B3
:10093000FF4F462F477021E030E0D90102C0AA0FD7
:10094000BB1F4A95E2F790819A279083669566953A
:100950006695679566276795680FE62FE695E69595
:10096000E695F0E0EF58FB4F6770062E01C0220FAE
:100970000A94EAF78081822B8083089580E0E82F33
:10098000F0E0E059FF4F1082DF01A058BF4F1C92EA
:10099000DF01B3951C92DF01A058BE4F1C92DF010E
:1009A000BE5F1C92DF01A058BD4F1C92DF01BD5FEE
:1009B0001C92E058FC4F10828F5F803801F7089539
:1009C0009C0197FD02C0C901089531952195310917
:1009D000C90108959F92AF92BF92CF92DF92EF929A
:1009E000FF920F931F93CF93DF93E42FF0E0E81B68
:1009F000F109F7FD65C09E2FA22FB0E0A61BB1093B
:100A0000B7FD68C0EA170CF447C0F92EF394CA2F5B
:100A1000CC0FC91BBB27A7FDB0959A2E990CAE1B16
:100A2000B109E7FDB395EA2EEE0CA12CBB24B394DB
:100A3000481778F5B194DD24DA94261738F5A19497
:100A4000CC24CA94D82F162F1F14A4F401E006C09A
:100A5000CE0DDD0D1C0D0F5FF01664F0612F8D2F94
:100A60000E94F103C7FFF4CFC90DDB0D1A0D0F5F14
:100A7000F016A4F7DF91CF911F910F91FF90EF90A7
:100A8000DF90CF90BF90AF909F900895CC24C394F7
:100A9000D9CFDD24D394D1CFFA2EF394C92FCC0F24
:100AA000CA1BFF27E7FDF0959E2E990CEA1BF10962
:100AB000A7FDF395EE2EEE0CAA24A394B12CB8CF8B
:100AC000F195E195F1099E2FA22FB0E0A61BB10987
:100AD000B7FF98CFB195A195B10994CF3F924F92AE
:100AE0005F926F927F928F929F92AF92BF92CF92BE
:100AF000DF92EF92FF920F931F93CF93DF93E82E35
:100B0000D62E322E142FF42EF194FF0C23E0F20E89
:100B100047FD71C0C1E0D0E034E0432E00E013C0D7
:100B20008C2FF7FC5EC011502AE0F20E9C2F911B17
:100B300024E0929FF00C11240F5F94E0490E21965F
:100B400018170CF458C0512E5D0C802E8E0C652D9C
:100B5000882D0E94F1036E2C601A652D862D0E944F
:100B6000F1037D2C711A672D882D0E94F103672DEA
:100B7000862D0E94F103902E9D0CC12ECE0C692D66
:100B80008C2D0E94F103AE2CA11A692D8A2D0E9492
:100B9000F103BD2CB01A6B2D8C2D0E94F1036B2D2F
:100BA0008A2D0E94F103332009F4BACF252D482D58
:100BB000652D862D0E94EA04272D462D672D882D50
:100BC0000E94EA04292D4A2D692D8C2D0E94EA04E9
:100BD0002B2D4A2D6B2D8C2D0E94EA048C2FF7FEB5
:100BE000A2CFF40C96E0F90E0F5F94E0490E219627
:100BF00018170CF0A8CFDF91CF911F910F91FF90A4
:100C0000EF90DF90CF90BF90AF909F908F907F90AC
:100C10006F905F904F903F9008953F924F925F92F8
:100C20006F927F928F929F92AF92BF92CF92DF92FC
:100C3000EF92FF920F931F93CF93DF93482E362EA0
:100C4000E82EF12C3701640E711CE614F704B4F59C
:100C5000862E912CE401C20FD11D582E630181E034
:100C6000C81AD1085E0181E0A81AB1088C169D0649
:100C7000FCF49401132D10C0541481F0EC14FD0405
:100C800069F0131559F02A153B0541F01F5F212F1C
:100C900030E02C173D0764F4002371F3612F852D9C
:100CA0000E94F1031F5F212F30E02C173D07A4F3B2
:100CB0005394E52CF12CE614F704C4F2DF91CF91A4
:100CC0001F910F91FF90EF90DF90CF90BF90AF906A
:100CD0009F908F907F906F905F904F903F9008957E
:100CE0004F925F927F928F929F92AF92BF92CF92DC
:100CF000EF92FF921F93CF93DF93882EC62E22236D
:100D000009F453C0A42EA694722E760E982E9A94AF
:100D1000940E44244394512CAA2009F443C0CC2DB2
:100D2000CF73D0E0D595C795D595C795D595C7957F
:100D3000D695DC2FCC27D795C7958C2D8770B42CF2
:100D400001C0BB0C8A95EAF7F12CC059DF4F0BC0EC
:100D50000E94F1036C2D812FEE20F9F00E94F10327
:100D6000F394FA14F9F08F2D880D982F9F77FE01D8
:100D7000E90FF11DE080EB20192D1F19912F9F77AE
:100D8000FE01E90FF11D90819B216C2D09F70E9456
:100D90004A046C2D812FE110E1CF0E944A04F394A4
:100DA000FA10E1CFC394C710B7CFDF91CF911F9155
:100DB000FF90EF90CF90BF90AF909F908F907F90DB
:100DC0005F904F9008953F924F925F926F927F9203
:100DD0008F929F92AF92BF92CF92DF92EF92FF924B
:100DE0000F931F93CF93DF9300D000D0CDB7DEB722
:100DF0008A83362E742E622E669409F46DC0812C7F
:100E0000362F3150320F3983EE24E394F12C9A803F
:100E1000940E772009F45DC0C82CC30CD980D81873
:100E20000C2D0F7310E015950795159507951595E1
:100E300007951695102F0027179507958C2D87700D
:100E4000AE2C01C0AA0C8A95EAF78D2D8F73282F3E
:100E500030E0359527953595279535952795369525
:100E6000322F2227379527953C832B838D2D877032
:100E7000BE2C01C0BB0C8A95EAF74A800CC0842DB9
:100E80000E94F1036D2D842D5520F1F00E94F10395
:100E900043944914F1F0242D2F7730E020593F4F2F
:100EA000F901E00FF11F50805A20EB81FC81E20F25
:100EB000F31F80818B216C2D11F7842D0E944A0431
:100EC0006D2D842D5110E2CF0E944A0443944910A5
:100ED000E2CF839486109DCF0F900F900F900F90CC
:100EE000DF91CF911F910F91FF90EF90DF90CF9006
:100EF000BF90AF909F908F907F906F905F904F903A
:100F00003F9008952F92282E3F923324221C37942D
:100F1000221C3794221C3794221C3794221C3794AD
:100F2000221C3794221C3794221C3794832D3F9027
:100F30002F90992708955F926F927F928F929F9240
:100F4000AF92BF92CF92DF92EF92FF920F931F93D7
:100F5000CF93DF9380E090E04FEFFC0180589F4FEC
:100F6000EC01C059DF4FE059FF4FA1E7B4E02A91EF
:100F70003081388321934D9324E0A13BB207B9F728
:100F80008115E4E09E0749F7C0E8CC2EC3E0DC2ED3
:100F9000D0E88D2ED3E09D2E55245A945401AC18E0
:100FA000BD08712CE72CF12C87010C0D1D1D00597B
:100FB0001F4FF8016080E701CA0DDB1DC059DF4FEC
:100FC00088810E948207F8018083862D0E94820713
:100FD0008883F701EF58FB4F50827394F0E87F123B
:100FE000E1CF20E8C21AD10880E8C81681E0D8060F
:100FF000A9F6DF91CF911F910F91FF90EF90DF90B5
:10100000CF90BF90AF909F908F907F906F905F90A8
:101010000895262F269526952695FC01E20FF11DB1
:10102000677021E030E0062E01C0220F0A94EAF733
:101030008081822B80830895262F269526952695DC
:10104000FC01E20FF11D677021E030E0062E01C0C7
:10105000220F0A94EAF720958081822380830895E5
:10106000262F269526952695820F911DFC0120811D
:1010700030E0677081E090E002C0880F991F6A95A8
:10108000E2F72823392381E0121613060CF40895A1
:1010900080E008953F924F925F926F927F928F927D
:1010A0009F92AF92BF92CF92DF92EF92FF920F93F7
:1010B0001F93CF93DF93CDB7DEB729970FB6F89480
:1010C000DEBF0FBECDBF4E8347FDEBC0C82E681BF1
:1010D0006F83962F91509887BF80BC0C2E81822FF2
:1010E000992787FD9095AC01415051095A83498356
:1010F000141615060CF0CFC0AC2CAA948B2D8F7350
:10110000E82EF12CF594E794F594E794F594E794A0
:10111000F694FE2CEE24F794E7948B2D87703324FD
:10112000339401C0330C8A95EAF78C2D8F77682EA3
:10113000712C98849C0C920E092D0F7310E015955C
:10114000079515950795159507951695102F002766
:1011500017950795892D877091E001C0990F8A95A1
:10116000EAF79B83D12CA0E7B0E0EA0EFB1E822EAB
:101170008A946A0E7B1EA20E0A0F1B1F8B0C8A2DEF
:101180008F77482E512C4A0E5B1E5D824C824AC0DE
:101190000E94F10399855A2C5D18852D8F77F801EF
:1011A000E80FF11D20815B812523692F8C2D09F427
:1011B00094C00E94F1039B2D9D0DE92FEF73F0E089
:1011C000F595E795F595E795F595E795F695FE2F55
:1011D000EE27F795E7952C813D81E20FF31F292F2C
:1011E000277041E050E002C0440F551F2A95E2F7F6
:1011F0009A0130813223692D852D9987332309F493
:1012000068C00E94F1039985692F8A2D4420C9F195
:101210000E94F103D3942D2D30E049815A81241787
:101220003507CCF58D2D8C0D982F9F77F701E90FA1
:10123000F11D40804320982D9D19E92FEF73F0E0B8
:10124000F595E795F595E795F595E795F695FE2FD4
:10125000EE27F795E795E60DF71D292F277041E05A
:1012600050E002C0440F551F2A95E2F79A013081E1
:1012700032236B2D998731118BCF0E944A049985B7
:101280008ACF0E944A04D3942D2D30E049815A819F
:10129000241735073CF25E8152505E83C39457FF9A
:1012A0001BCF29960FB6F894DEBF0FBECDBFDF91DE
:1012B000CF911F910F91FF90EF90DF90CF90BF9053
:1012C000AF909F908F907F906F905F904F903F90E6
:1012D00008950E944A04998597CF0E944A046BCFD3
:1012E000BF92CF92DF92EF92FF920F931F93CF9313
:1012F000DF93B62EE82FF0E07F01E40EF11CEE152F
:10130000FF05D4F4062F10E0E801C20FD11DC82E4E
:101310000C171D075CF4DB2C6D2D8C2D0E948504B1
:10132000D3942D2D30E02C173D07B4F3C3942C2D0E
:1013300030E02E153F0564F3DF91CF911F910F919F
:10134000FF90EF90DF90CF90BF9008956F927F92C3
:101350008F929F92AF92BF92CF92DF92EF92FF92C5
:101360000F931F93CF93DF931F92CDB7DEB7862ED7
:10137000E82FF0E05F01A40EB11CEA15FB050CF0AC
:101380004BC0C62ED12C8601020F111D982EEE24C3
:10139000E394F12CC016D106C4F5892D8F77682E01
:1013A000712C982DE0E7F0E06E0E7F1E06C09F5F67
:1013B000292F30E02017310744F5E92FEF73F0E0D3
:1013C000F595E795F595E795F595E795F695FE2F53
:1013D000EE27F795E795E60DF71D292F2770A70152
:1013E00002C0440F551F2A95E2F79A01308132233B
:1013F000F1F2692F892D99830E944A0499819F5F98
:10140000292F30E020173107C4F29394292D30E0C2
:101410002A153B050CF4BECF0F90DF91CF911F91A1
:101420000F91FF90EF90DF90CF90BF90AF909F9083
:101430008F907F906F9008953F924F925F926F923E
:101440007F928F929F92AF92BF92CF92DF92EF9254
:10145000FF920F931F93CF93DF93CDB7DEB72797FC
:101460000FB6F894DEBF0FBECDBF6A83F42E302EC8
:101470001E2DFC01649131965491FC013396521754
:1014800090F4A49132966A9FD0011124109741F0F4
:1014900030E031963F5F832F90E08A179B07CCF3B3
:1014A0005F5F5213EECFE4902F0182E0480E511C93
:1014B000319694919D83662309F44BC06F0D698327
:1014C000892E912C2E2D215030E0D9011196BC830C
:1014D000AB83EE20D1F10A81F201A12CB12C3F01A6
:1014E000BFEF6B1A7B0AC490D12C40E050E096010C
:1014F000042E02C0359527950A94E2F720FF13C009
:101500009501240F351F281539056CF431100BC0D7
:101510006F2D842F800F4E835F83111133C00E9483
:10152000F1034E815F814F5F5F4F48305105F9F6FF
:10153000E8E0AE0EB11C085FF301862D84198E150C
:1015400070F28B819C81480E591EF3949981F91297
:10155000C0CF8D8127960FB6F894DEBF0FBECDBFEA
:10156000DF91CF911F910F91FF90EF90DF90CF907F
:10157000BF90AF909F908F907F906F905F904F90B3
:101580003F9008950E944A045F814E81CCCFEF9234
:101590000F93262FE12C01E040E060E00E941C0A3E
:1015A0000F91EF900895EF920F93E02E00E00E94CC
:1015B0001C0A0F91EF900895BF92CF92DF92EF92A5
:1015C000FF920F931F93CF93DF937C01B62ED42EFF
:1015D000E901C02E28812223C1F02196162F0C2D5F
:1015E0004D2D612FC7010E94D30A180F2991211197
:1015F000F6CF812F8B19DF91CF911F910F91FF9023
:10160000EF90DF90CF90BF90089580E0F4CFBF922D
:10161000CF92DF92EF92FF920F931F93CF93DF93BE
:101620007C01B62ED42EE901C02EF90184918823C5
:10163000D9F0162FFE0124910C2D4D2D612FC701DD
:101640000E94D30A180F2196FE0184918111F2CFD6
:10165000812F8B19DF91CF911F910F91FF90EF9008
:10166000DF90CF90BF90089580E0F4CF6F927F928B
:101670008F929F92AF92BF92CF92DF92EF92FF92A2
:101680000F931F93CF93DF9300D000D01F92CDB75D
:10169000DEB75C01662E942E6901802E7E2C37FD0C
:1016A00044C021153105E9F1F62E14E02AE030E0BE
:1016B000E1E0F0E0EC0FFD1FE10FF11DC601B90103
:1016C0000E94590D80836B0111501616170684F382
:1016D0001F5FE1E0F0E0EC0FFD1FE10FF11D208145
:1016E000205DE72C082D492D6F2DC5010E941C0A95
:1016F000F80E143068F38F2D86190F900F900F900D
:101700000F900F90DF91CF911F910F91FF90EF906D
:10171000DF90CF90BF90AF909F908F907F906F9011
:10172000089520E30E941C0AE8CF2DE20E941C0AC3
:10173000F82EF60CD194C194D108B7CFFF920F9335
:101740001F93CF93DF938C01EB016881662381F0B7
:101750002196F12CC8010E94C70AF80E6991611107
:10176000F9CF8F2DDF91CF911F910F91FF900895A9
:10177000F12CF7CFFF920F931F93CF93DF938C0140
:10178000EB01FB018491F12C882359F0FE01649157
:10179000C8010E94C70AF80E2196FE0184918111AA
:1017A000F5CF8F2DDF91CF911F910F91FF9008956D
:1017B0006F927F928F929F92AF92BF92CF92DF9261
:1017C000EF92FF920F931F93CF93DF937C01662ECE
:1017D000842E722E822F877009F446C0822F887F54
:1017E000885F002391F1A82EB12C080DC12CD12CBB
:1017F000972C960C772021F1162DE60104C0219636
:101800001F5F1915E9F0FE01F595E795F595E79548
:10181000F595E795EE0DFF1DE491F0E0DE01A77070
:10182000BB2702C0F595E795AA95E2F7E0FFE7CF61
:10183000682D812F0E94F10321961F5F1911E3CFBC
:10184000CA0CDB1C83948012D5CFDF91CF911F91FE
:101850000F91FF90EF90DF90CF90BF90AF909F904F
:101860008F907F906F900895822FBBCFBF92CF92C1
:10187000DF92EF92FF920F931F93CF93DF93E12CB0
:10188000F12CC1E0D0E0BE2C80E00E9435038E2D0B
:101890000E944E03B794BB24B79487011695102F6E
:1018A000002717950795C12CD12C00591F4FED2DFE
:1018B000EB0D2E2F2770CE0102C0880F991F2A959D
:1018C000E2F79C01E695E695E695F0E0EF58FB4FD0
:1018D0008081822369F0CD1421F08D2D0E94350383
:1018E000CD2CF801ED0DF11D80810E941F03C394E2
:1018F000D39490E8D912DBCF8FEFE81AF80A98E07A
:10190000E916F10409F0BFCFDF91CF911F910F913C
:10191000FF90EF90DF90CF90BF9008951F920F92AD
:101920000FB60F9211242F933F938F939F93EF93B2
:10193000FF93B19B2CC0E0916E00F0E0EF50FB4FA5
:10194000208130916D0081E090E0032E01C0880F6E
:101950000A94EAF7282B208380916D008F5F809393
:101960006D0080916D00883039F480916E008F5F3A
:1019700080936E0010926D00FF91EF919F918F9177
:101980003F912F910F900FBE0F901F901895E091EF
:101990006E00F0E0EF50FB4F208130916D0081E050
:1019A00090E0032E01C0880F0A94EAF78095822305
:1019B0008083D2CF84B7806484BF8BB780628BBFB3
:1019C0000E946C030E948C03A29AA398AA980E947A
:1019D000BE0400E020E440E860E080E00E940D06E4
:1019E00001E027E040E860E080E00E940D0660E052
:1019F00080E00E944A0460E08FE70E944A046FE39F
:101A00008FE70E944A046FE380E00E944A0420E6C8
:101A100030E04FEF68E284E192E00E94DC0A08E3E4
:101A20002BE347E062E284E590E00E94D80B0E943D
:101A3000360C789480E00E94350380E00E944E03CB
:101A400080E00E943503D0E0C0E020916C009091CE
:101A50006E002917F9F0E0916C00F0E0EF50FB4FB9
:101A600080810E941F0390916C009F5F90936C0097
:101A7000CF5FC038A9F0D83041F780E00E9435032D
:101A800080E00E944E03D0E020916C0090916E00A7
:101A90002913E1CF9B9B02C0AA9AD7CFAA98D5CF92
:101AA000DF5F80E00E9435038D2F0E944E03C0E06F
:101AB000E2CF97FB072E16F4009407D077FD09D0EC
:101AC0000E946D0D07FC05D03EF4909581959F4FC7
:101AD0000895709561957F4F0895AA1BBB1B51E136
:101AE00007C0AA1FBB1FA617B70710F0A61BB70B8E
:101AF000881F991F5A95A9F780959095BC01CD0133
:061B00000895F894FFCFE8
:0C1B06005354415254494E472E2E2E00DD
:00000001FF
