:100000000C94E8020C9405030C9405030C94A20BC9
:100010000C9405030C9405030C9405030C94050340
:100020000C9405030C9405030C9405030C94050330
:100030000C9405030C9405030C9405030C94050320
:100040000C9405030C9405030C9405030C94050310
:100050000C9405030820800104000000000000004B
:100060000001030000020202000200010500000A74
:100070000A0000000001080000143E143E140001B4
:100080000600081C020C101E0401080000161608C9
:100090003434000000010300081A020800180801A7
:1000A00004000014020202140001040000120404FF
:1000B00004120001080000082A1C2A080001080098
:1000C0000008083E08080001030000080838080A74
:1000D000010105000000002E0000000102000000E8
:1000E000002C0001000105000008082402020001A4
:1000F0000600000C1212120C000105000006040498
:10010000040E00010600000E100C021E0001060085
:10011000000E100C100E00010600000A0A0A1E084C
:1001200000010600001E020E100E00010600000C69
:10013000020E120C00010600001E1008040400014B
:100140000600000C120C120C00010600000C121C20
:10015000100C00010200000C111C110C0001030026
:100160000008121812090001050000080402040822
:100170000001050000000E000E0000010500000255
:100180000408040200010600000E100C0004000127
:100190000800001C2A1A021C00010600000C121E96
:1001A000121200010600000E120E120E00010600CF
:1001B000000C1202120C00010600000E1212120EA8
:1001C00000010500000E020E020E00010500000EE7
:1001D000020E020200010600001C021A120C0001AD
:1001E00006000012121E1212000103000012121A61
:1001F00012120001060000101010120C000106007F
:1002000000120A060A120001050000020202020E94
:10021000000108000022362A2222000108000022E4
:10022000262A322200010600000C1212120C0001D4
:100230000600000E120E020200010600000C12124F
:10024000120C10010600000E120E0A120001060028
:10025000001C020C100E00010500000E0404040432
:100260000001060000121212120C00010800002208
:10027000221414080001080000222A2A2A1400016E
:1002800008000022140814220001080000221408AB
:10029000080800010500002E0804020E00010400F9
:1002A00000260202020600010500002202040808DE
:1002B00000010400002604040406000105000024D7
:1002C0000A000000000106000000000000001E01FE
:1002D000040000020400000010010600000C121EC1
:1002E000121200010600000E120E120E000106008E
:1002F000000C1202120C00010600000E1212120E67
:1003000000010500000E020E020E00010500000EA5
:10031000020E020200010600001C021A120C00016B
:1003200006000012121E1212000103000012121A1F
:1003300012120001060000101010120C000106003D
:1003400000120A060A120001050000020202020E53
:10035000000108000022362A2222000108000022A3
:10036000262A322200010600000C1212120C000193
:100370000600000E120E020200010600000C12120E
:10038000120C10010600000E120E0A1200010600E7
:10039000001C020C100E00010500000E04040404F1
:1003A0000001060000121212120C000108000022C7
:1003B000221414080001080000222A2A2A1400012D
:1003C000080000221408142200010800002214086A
:1003D000080800010500002E0804020E00010500B7
:1003E000002C0402040C00010300022A0202020A8B
:1003F000020105000026040804060001060000149E
:100400000A000000000105000F090909090F00009A
:10041000000000000000000000E0FF7F000000007E
:10042000007C00E001000000000700000700000061
:1004300080F1FF7F1C000000C03C00E031000000A4
:100440003007000067000000F8010000F80000001D
:100450003C000000E00100000C00F00380030000FD
:100460000680FF0F0007000003600E70000E008082
:10047000011C0880010C00C0001A00000318006075
:10048000001F00000E100060803F00001E30003092
:10049000407F00003E60003020FF00006040001000
:1004A00020FF0000E0C0001810FF0000E0C10018AD
:1004B00078FF0100E0C30118FC1F000038C6019C52
:1004C000F30F000038C401DCF307000000DC01DC9E
:1004D000F3030000E0DE01DCF3010000F0DE01DCEC
:1004E000F7000000F0DE01DCE7000000F8DE01DCD0
:1004F000E7000000FCDE01DC670000007CDE01FCA0
:100500006F0000007CDE01FC0F0000007EFF01FC9C
:100510000F0000007EFF01F80F0000007EFF01F0D9
:100520004F0000007CFF00F02F0000007C7F00C027
:100530002F0000007C1F00C02F000000781F00C0AB
:100540006F000000301F00C0C77C0000001F00C00B
:1005500087FF0000001F00C007FF0100001F008090
:1005600007FE0700001E008003FE0F00000E0000C3
:100570000CFE3F000002000008FEFF010001000029
:1005800018FEFF078001000030FCFF07C0000000DC
:1005900060F8FF0760000000C0F8FF0330000000B3
:1005A00080F1FF031800000000E3FF030C000000CF
:1005B00000C6FF030700000000BCFFC001000000F0
:1005C00000E0FF78000000000000FF1F00000000B6
:1005D00011241FBECFE5D8E0DEBFCDBF10E0A0E6FE
:1005E000B0E0E0E3F9E102C005900D92AC36B1074E
:1005F000D9F715E0ACE6B0E001C01D92A13FB1070C
:10060000E1F70E94EE0B0C94960C0C940000AE984F
:10061000AF98662351F0AD98AC9A8BBBAE9A8CE143
:100620008A95F1F7AE981BBA0895AD9AAC98F5CFBC
:1006300090917004AE98AF9A903468F0AD98AC9AEF
:100640008BBBAE9A8CE18A95F1F7AE981BBA9F5F8F
:10065000909370040895AD9AAC98F2CF1F93182F21
:1006600080937004803460F08FE760E00E9407039D
:100670001F73812F806461E00E9407031F9108951A
:100680001F73812F806460E00E94070380E461E0B3
:100690000E9407031F9108950F931F93082F182F8F
:1006A000186B812F60E00E940703812F61E00E9498
:1006B000070300936F001F910F9108951F93182F48
:1006C000106C812F60E00E940703812F61E00E947F
:1006D00007031F910895A69AA79AA59AA49A8FEF47
:1006E0008ABBAE98AD9AAC98AF988FE360E00E9459
:1006F00007038FE361E00E94070380E00E945E032E
:1007000080E00E944C0380E00E942E0310926F0054
:100710001092700408950F931F9300E080E00E94F0
:100720002E03802F0E944C0310E080E00E941803EB
:100730001F5F1038D1F70F5F083081F780E00E940B
:100740002E0380E00E944C031092700410926F0000
:100750001F910F910895679566276795680F862FFB
:10076000869586958695E1E7F4E0E80FF11D6770C0
:1007700081E090E002C0880F991F6A95E2F720811E
:10078000282B20830895679566276795680F862F25
:10079000877021E030E002C0220F331F8A95E2F714
:1007A000669566956695E1E7F4E0E60FF11D8081B8
:1007B00082230895679566276795680F862F86952B
:1007C00086958695E1E7F4E0E80FF11D677081E01A
:1007D00090E002C0880F991F6A95E2F7809520810A
:1007E000822380830895262F30E0F901E295F29567
:1007F000F07FFE27E07FFE27E078F370982F9F7749
:10080000E90FF11DE059FF4F2770307041E050E0D3
:10081000DA0102C0AA0FBB1F2A95E2F790819A2B3A
:100820009083669566956695679566276795680FC8
:10083000862F869586958695E1E7F4E0E80FF11D11
:10084000677002C0440F551F6A95E2F78081842BC0
:100850008083089570E0FB01E295F295F07FFE271A
:10086000E07FFE27E078F3708F77E059FF4FE80FC5
:10087000F11D6770707021E030E002C0220F331F5D
:100880006A95E2F7808182230895262F30E0F901EE
:10089000E295F295F07FFE27E07FFE27E078F37087
:1008A000982F9F77E90FF11DE059FF4F27703070A7
:1008B00041E050E0DA0102C0AA0FBB1F2A95E2F71F
:1008C0009D0120959081922390836695669566950B
:1008D000679566276795680F862F86958695869516
:1008E000E1E7F4E0E80FF11D677002C0440F551F07
:1008F0006A95E2F78081842B80830895262F30E06B
:10090000F901E295F295F07FFE27E07FFE27E0787F
:10091000F370982F9F77E90FF11DE059FF4F277073
:10092000307041E050E0DA0102C0AA0FBB1F2A95E7
:10093000E2F790819A27908366956695669567950C
:1009400066276795680F862F869586958695E1E7D9
:10095000F4E0E80FF11D677002C0440F551F6A955F
:10096000E2F78081842B8083089580E0E82FF0E017
:10097000E059FF4F1082E058FF4F1082E058FF4FC0
:100980001082E058FF4F1082E058FF4F1082E0586D
:10099000FF4F1082E058FF4F1082E058FF4F108247
:1009A0008F5F803819F708959C0197FD02C0C90137
:1009B0000895309521953F4FC90108957F928F92F8
:1009C0009F92AF92BF92CF92DF92EF92FF920F93DE
:1009D0001F93E82FF22F242F30E0281B310937FD19
:1009E00063C0722F2F2F30E0261B310937FD66C000
:1009F000522F72170CF445C0D72ED394332727FDFE
:100A00003095C901880F991FE82EE71A782EC22E5B
:100A1000C71ACC0C88248394AA244E1770F1992409
:100A20009394F61730F1BB24B3941D14B4F4FE2E46
:100A3000062F11E006C0EC0CF90C0B0D1F5FD11650
:100A400064F08F2D602F0E94F303E7FEF4CFE70CD4
:100A5000F80C0A0D1F5FD116A4F71F910F91FF909C
:100A6000EF90DF90CF90BF90AF909F908F907F904E
:100A70000895A194BB24BA94D8CF819499249A94D0
:100A8000D0CFD22ED394272F332727FD3095C901FD
:100A9000880F991FE82EE51A782EC22EC51ACC0CA5
:100AA0008824AA24A394B9CF309521953F4F722F63
:100AB0002F2F30E0261B310937FF9ACF3095219533
:100AC0003F4F96CF3F924F925F926F927F928F925D
:100AD0009F92AF92BF92CF92DF92EF92FF920F93CD
:100AE0001F93CF93DF93582E662E322E142F47FD7F
:100AF00082C0842F90E0880F991F909581959F4F19
:100B000093E0992E980E772404E0402EC1E0D0E0C7
:100B10001AC097FC65C02C2F11505AE0950E812FFA
:100B2000992787FD9095AE01481B590BCA01880F84
:100B3000991F880F991F980E739454E0450E2196C3
:100B400012170CF458C0872C850CA12EA60C882DEA
:100B50006A2D0E94F303B52CB7188B2D6A2D0E94C5
:100B6000F303C62CC11A882D6C2D0E94F3038B2D24
:100B70006C2D0E94F303D12ED50CE72CE60C8D2DA5
:100B80006E2D0E94F303F52CF11A8F2D6E2D0E940D
:100B9000F303062D07198D2D602F0E94F3038F2D6F
:100BA000602F0E94F303332009F4B3CF8B2D6A2DFD
:100BB000482D2A2D0E94DE04882D6C2D4B2D2C2DC6
:100BC0000E94DE048D2D6E2D4F2D2E2D0E94DE04F1
:100BD0008D2D602F4F2D202F0E94DE0497FE9BCF7E
:100BE0002C2F940C46E0940E739454E0450E2196FD
:100BF00012170CF0A8CFDF91CF911F910F91FF90AA
:100C0000EF90DF90CF90BF90AF909F908F907F90AC
:100C10006F905F904F903F9008954F925F927F92B8
:100C20008F929F92AF92BF92CF92DF92EF92FF92FC
:100C30000F931F93DF93CF9300D000D0CDB7DEB7D3
:100C4000B82E762EA02EE82EFF24C701840F911D0A
:100C50009A838983E816F906CCF5862E9924F40147
:100C6000E20FF11DFC83EB830B2D6C010894C1088E
:100C7000D1082F01089441085108EB81FC818E16A0
:100C80009F06E4F4172DC40112C00B1591F0EC146B
:100C9000FD0479F0171569F08415950551F01F5F73
:100CA000812F90E02B813C81821793073CF4AA208E
:100CB00061F3802F612F0E94F303F1CF0F5FE02ECD
:100CC000FF2489819A81E816F906BCF20F900F90F3
:100CD0000F900F90CF91DF911F910F91FF90EF90A8
:100CE000DF90CF90BF90AF909F908F907F905F905C
:100CF0004F9008957F928F929F92AF92BF92CF9222
:100D0000DF92EF92FF920F931F93C82E762E822EC2
:100D10002223C9F1B42EB6949924CA94AC2CA40E03
:100D2000C394BB2069F1E92CE70CFF240DC0812F8F
:100D30006E2D0E94F303DD20E1F0802F6E2D0E94C6
:100D4000F303F394FB14E0F41F2D1C0D812F6E2D83
:100D50000E942A04D82E0A2D0F19802F6E2D0E9472
:100D60002A04882321F7812F6E2D0E944504DD205F
:100D700021F7802F6E2D0E944504F394FB1420F37D
:100D80009394981470F21F910F91FF90EF90DF9061
:100D9000CF90BF90AF909F908F907F9008958F924B
:100DA0009F92AF92BF92CF92DF92EF92FF920F93FA
:100DB0001F93B82E962EC42E822E8694B1F19A944B
:100DC000D92CD20E9394AA24CC2059F1EA2CE90C08
:100DD00000E00DC0812F6E2D0E94F303FF20D1F0A3
:100DE000812F6D2D0E94F3030F5F0C15D0F4102F8F
:100DF0001B0D812F6E2D0E942A04F82E812F6D2D40
:100E00000E942A04882331F7812F6E2D0E94450409
:100E1000FF2031F7812F6D2D0E9445040F5F0C15C7
:100E200030F3A394DA94A81478F21F910F91FF90F5
:100E3000EF90DF90CF90BF90AF909F908F900895EC
:100E40002F92282E3F923324221C3794221C379451
:100E5000221C3794221C3794221C3794221C37946E
:100E6000221C3794221C3794832D3F902F90992772
:100E70000895CF93DF9340E050E02FEFFA01E15166
:100E8000FF4FEA01C059DF4FA1E7B4E090818881AC
:100E9000808399932D93319784E0A13BB807B1F7F4
:100EA00040585F4F84E04030580741F740E853E036
:100EB000C0E8D3E06FEF9E01241B350B80E0205982
:100EC0003F4FE82FF0E0DA01AE0FBF1FA059BF4F30
:100ED0009C912F923F923324221C3794221C3794EA
:100EE000221C3794221C3794221C3794221C3794DE
:100EF000221C3794221C3794832D3F902F909927E2
:100F00001C922F923F923324221C3794221C379438
:100F1000221C3794221C3794221C3794221C3794AD
:100F2000221C3794221C3794832D3F902F909927B1
:100F3000D901AE0FBF1F1C92EF58FB4F60838F5F2C
:100F4000803809F0BECF4058504081E04038580703
:100F500009F0B1CF292EDF91CF910895262F269544
:100F600026952695FC01E20FF11D677081E090E067
:100F700002C0880F991F6A95E2F72081282B2083F1
:100F80000895262F269526952695FC01E20FF11D42
:100F9000677081E090E002C0880F991F6A95E2F7C0
:100FA0008095208128232083089540E0262F2695D0
:100FB00026952695FC01E20FF11D208130E0677037
:100FC00081E090E002C0880F991F6A95E2F728231C
:100FD0003923121613060CF441E0842F08956F9202
:100FE0007F928F929F92AF92BF92CF92DF92EF92B9
:100FF000FF920F931F93CF93DF93E82EF62E842E4C
:1010000047FD83C0EA946E2C640EE394FA947F2C1F
:10101000740EF394C82DDD27C7FDD09521971C16BB
:101020001D060CF069C0FA94EA94A82CAF0CF39456
:10103000BE2CB80CE394C72CD62C00E028C0812F1E
:101040006F2D0E94F3038D2D6A2D0E942A048823A0
:10105000A9F18E2D6C2D0E94F303102F1F0D8B2DE7
:10106000612F0E942A048823A9F18D2D6A2D0E94E8
:10107000F3039920A9F18B2D612F0E94F3030F5FD9
:10108000CA94DA94802F90E08C179D07ACF5102F4E
:101090001E0D812F6F2D0E942A04982E8E2D6C2DEF
:1010A0000E942A04882359F6812F6F2D0E9445043F
:1010B0008D2D6A2D0E942A04882359F68E2D6C2DC1
:1010C0000E944504102F1F0D8B2D612F0E942A04B2
:1010D000882359F68D2D6A2D0E944504992059F6D2
:1010E0008B2D612F0E9445040F5FCA94DA94802FE4
:1010F00090E08C179D075CF28EEF880E6A947A94CC
:1011000087FC03C0E394F39485CFDF91CF911F91C7
:101110000F91FF90EF90DF90CF90BF90AF909F9096
:101120008F907F906F900895BF92CF92DF92EF9251
:10113000FF920F931F93CF93DF93382FB62E90E03B
:101140006C01C40ED11C8C159D05D4F4E62EFF2431
:10115000E701C20FD11D032FEC16FD065CF41B2D19
:10116000802F612F0E947E041F5F812F90E08C17DB
:101170009D07B4F30F5F802F90E08C159D0564F3FD
:10118000DF91CF911F910F91FF90EF90DF90CF9063
:10119000BF900895BF92CF92DF92EF92FF920F938C
:1011A0001F93CF93DF93382FB62E90E06C01C40EBF
:1011B000D11C8C159D053CF5E62EFF24E701C20FDE
:1011C000D11D032FEC16FD06C4F41B2D06C01F5FB6
:1011D000812F90E08C179D0784F4802F612F0E944F
:1011E0002A048823A1F3802F612F0E9445041F5FEA
:1011F000812F90E08C179D0784F30F5F802F90E084
:101200008C159D05FCF2DF91CF911F910F91FF90FE
:10121000EF90DF90CF90BF9008953F924F925F92F2
:101220006F927F928F929F92AF92BF92CF92DF92F6
:10123000EF92FF920F931F93DF93CF93CDB7DEB75B
:1012400028970FB6F894DEBF0FBECDBF6B83542E28
:10125000402EEC82FC01019634913A83FC013491DA
:1012600032963217E0F48A81082F10E0632F8491C0
:10127000329690E0809FA001819F500D909F500D6D
:1012800011244115510541F030E031963F5F832F25
:1012900090E084179507CCF36F5F621740F3CF019E
:1012A0000196A490FC01F491F9832A81222309F488
:1012B0005BC03C010894611C711C33248F2E99245F
:1012C000AA948A2D90E0A39401969E838D83AA20F0
:1012D00009F444C0F301BB80EE24FF246F0108949D
:1012E000C11CD11C8491082F10E018861F82C801F0
:1012F0000F8002C0959587950A94E2F780FF11C090
:101300008F8198858E0D9F1D8815990554F4442072
:1013100041F49C819923C1F48F818B0D652D0E942E
:10132000F303AF81B8851196B887AF831897F9F6A4
:10133000E8E0F0E0EE0EFF1EF8E0BF0E8C2D8619FF
:101340008A1540F4F601CACF8F818B0D652D0E945E
:101350004504E7CF2D813E81620E731E3394539472
:101360003A81331608F4B3CF898128960FB6F894E2
:10137000DEBF0FBECDBFCF91DF911F910F91FF90C8
:10138000EF90DF90CF90BF90AF909F908F907F9025
:101390006F905F904F903F900895EF920F93262F9C
:1013A00060E040E001E0EE240E940D090F91EF9013
:1013B0000895EF920F93E02E00E00E940D090F9127
:1013C000EF900895BF92CF92DF92EF92FF920F932A
:1013D0001F93CF93DF937C01B62EC42EE901D02E4C
:1013E00028812223C1F0162FC701612F4C2D0D2D0E
:1013F0000E94D909180F219628812223A9F7812F4D
:101400008B19DF91CF911F910F91FF90EF90DF909B
:10141000CF90BF90089580E0F4CFBF92CF92DF923B
:10142000EF92FF920F931F93CF93DF937C01B62E21
:10143000C42EE901D02EF9018491882389F0162F5A
:10144000FE012491C701612F4C2D0D2D0E94D90959
:10145000180F2196FE018491882391F7812F8B1913
:10146000DF91CF911F910F91FF90EF90DF90CF9080
:10147000BF9008954F925F926F927F928F929F924A
:10148000AF92BF92CF92DF92EF92FF920F931F9392
:10149000DF93CF9300D000D00F92CDB7DEB75C01C1
:1014A000462E742E6901602E5E2C37FD49C0211531
:1014B000310509F441C0F62E14E04E010894811C58
:1014C000911CF401E10FF11DC6016AE070E00E9479
:1014D0006F0C8083C6016AE070E00E946F0C6B01A4
:1014E0001150161617066CF31F5FF401E10FF11D82
:1014F0002081205DC5016F2D472D062DE52C0E9412
:101500000D09F80E143080F38F2D84190F900F9071
:101510000F900F900F90CF91DF911F910F91FF903F
:10152000EF90DF90CF90BF90AF909F908F907F9083
:101530006F905F904F90089520E30E940D09E6CFD1
:101540002DE20E940D09F82EF40CD094C194D1081C
:10155000D394B2CFEF92FF921F93CF93DF937C018E
:10156000EB016881662381F010E0C7010E94CD097C
:10157000180F219668816623C1F7812FDF91CF91E3
:101580001F91FF90EF90089510E0F7CFEF92FF9238
:101590001F93CF93DF937C01EB01FB0184918823A0
:1015A00099F010E0FE016491C7010E94CD09180F67
:1015B0002196FE0184918823A9F7812FDF91CF9195
:1015C0001F91FF90EF90089510E0F7CF6F927F92F8
:1015D0008F929F92AF92BF92CF92DF92EF92FF9243
:1015E0000F931F93CF93DF936C01A62E642EF22EE0
:1015F000702E822F90E087709070892B09F046C082
:10160000822F7720A1F1882E9924EE2400E010E0AB
:10161000FF2041F1C0E0D0E0BE2CB60C03C0219603
:10162000CF1500F5CE01800F911FFC01F595E795D0
:10163000F595E795F595E795EC0DFD1DE4912E2FB9
:1016400030E08770907002C0359527958A95E2F753
:1016500020FFE5CF8A2D8C0F6B2D0E94F30321967E
:10166000CF1500F3E394080D191DE71488F2DF91FC
:10167000CF911F910F91FF90EF90DF90CF90BF908F
:10168000AF909F908F907F906F900895822F887F6A
:10169000885FB7CFAF92BF92CF92DF92FF920F9346
:1016A0001F93CF93DF93AA24BB2451E0C52ED12CE6
:1016B000FA2C80E00E942E038A2D0E944C03F7949E
:1016C000FF24F794E501D695DC2FCC27D795C79555
:1016D00090E010E001E0C059DF4FE12FEF0D2E2F19
:1016E0002770A60102C0440F551F2A95E2F7E69520
:1016F000E695E695F0E0EF58FB4F8081842361F09A
:10170000191719F0812F0E942E03FE01E10FF11D20
:1017100080810E941803902F1F5F0F5F17FFDDCF9E
:101720000894A11CB11C58E0A516B10409F0C0CF63
:10173000DF91CF911F910F91FF90DF90CF90BF90DD
:10174000AF9008951F920F920FB60F9211242F930E
:101750003F938F939F93EF93FF93B19B2CC0E091A6
:101760006C00F0E0EF50FB4F208130916D0081E084
:1017700090E002C0880F991F3A95E2F7282B20834A
:1017800080916D008F5F80936D0080916D00883037
:1017900039F480916C008F5F80936C0010926D0023
:1017A000FF91EF919F918F913F912F910F900FBEDD
:1017B0000F901F901895E0916C00F0E0EF50FB4FF8
:1017C000308120916D0081E090E002C0880F991F68
:1017D0002A95E2F7809583238083D2CF0F931F93BE
:1017E00084B7806484BF8BB780628BBF0E946B0319
:1017F0000E948B03A29AA398AA980E94B50480E045
:1018000060E040E820E400E00E940D0680E060E037
:1018100040E827E001E00E940D0680E060E00E94C1
:1018200045048FE760E00E9445048FE76FE30E9464
:10183000450480E06FE30E94450484E590E068E29F
:101840004FEF20E630E00E94E2098FE094E062E290
:1018500047E02BE308E30E94E60A0E944A0B7894D3
:1018600080E00E942E0380E00E944C0380E00E94F2
:101870002E0300E010E090916E0080916C009817AC
:10188000F9F0E0916E00F0E0EF50FB4F80810E9494
:10189000180380916E008F5F80936E000F5F003899
:1018A000A9F0183041F780E00E942E0380E00E94EA
:1018B0004C0310E090916E0080916C00981709F72E
:1018C0009B9B02C0AA9AD7CFAA98D5CF1F5F80E072
:1018D0000E942E03812F0E944C0300E0E2CF97FB71
:1018E000092E07260AD077FD04D00CD006D00020A0
:1018F0001AF4709561957F4F0895F6F7909581954C
:101900009F4F0895AA1BBB1B51E107C0AA1FBB1F15
:10191000A617B70710F0A61BB70B881F991F5A957B
:10192000A9F780959095BC01CD010895F894FFCF5B
:0C1930005354415254494E472E2E2E00B5
:00000001FF
