:100000001AC032C03CC130C02FC02EC0F3C02CC0BB
:100010002BC02AC029C028C027C026C025C024C0A4
:1000200023C022C021C00000FF0000000001010029
:10003000000000FF000011241FBECFEDCDBF10E077
:10004000A0E6B0E0EAEFF3E002C005900D92A4361E
:10005000B107D9F710E0A4E6B0E001C01D92A937BE
:10006000B107E1F7ABD1C7C1CBCF80916F00880F4B
:10007000880F8C7080936F00869B03C08260809392
:100080006F00859B05C080916F00816080936F0039
:10009000E0916F00FF27E7FDF095EA5DFF4FE491E7
:1000A00080917800E80FE09378000895E9E5F0E0AA
:1000B00080818D7F8083809178001092780090817C
:1000C000926090830895CF93DF9361E020E030E069
:1000D000C6E3D0E0A0E7B0E08881862321F58091D7
:1000E0006600862B80936600FD01E20FF31F80817E
:1000F000803538F4FD01E20FF31F80818F5F80832C
:100100002DC0FD01E20FF31F8081803539F580910C
:100110006500862B80936500FD01E20FF31F80814F
:100120008F5F80831BC0809166008623B9F0FD013C
:10013000E20FF31F8081803530F480916400862BBC
:100140008093640004C0FD01E20FF31F10829091C0
:100150006600862F80958923809366002F5F3F4F2E
:100160002830310511F0660FB7CFDF91CF91089598
:10017000582FE9E5F0E080818D7F808380916400D5
:100180004091640021E030E0052E02C0220F331FB1
:100190000A94E2F7209524232093640020812260B2
:1001A000208390E002C0959587955A95E2F781707B
:1001B0000895582FE9E5F0E080818D7F808380915C
:1001C00065004091650021E030E0052E02C0220F5D
:1001D000331F0A94E2F720952423209365002081A1
:1001E0002260208390E002C0959587955A95E2F7AA
:1001F0008170089578941F920F920FB60F92112478
:100200002F933F934F935F936F937F938F939F931E
:10021000AF93BF93EF93FF9328DF55DF8091670083
:100220008823E1F4209164004091650050917800AA
:10023000942F80E030E0822B932B352F332720E062
:10024000822B932BAA2797FDA095BA2F8093680045
:1002500090936900A0936A00B0936B00FF91EF91B7
:10026000BF91AF919F918F917F916F915F914F91CE
:100270003F912F910F900FBE0F901F9018951F92D6
:100280000F920FB60F9211242F933F934F935F93CA
:100290006F937F938F939F93AF93BF93EF93FF934E
:1002A00080916700883010F580916700882331F4D1
:1002B0008091640080936C001092640080916C00C7
:1002C0002091670090E002C0959587952A95E2F706
:1002D00080FF06C0E2E3F0E080818061808352C04D
:1002E000E2E3F0E080818F7E80834CC080916700E4
:1002F000803120F580916700883031F4809165006D
:1003000080936D001092650020916D0080916700D0
:1003100030E090E0089702C0359527958A95E2F77E
:1003200020FF06C0E2E3F0E08081806180832AC084
:10033000E2E3F0E080818F7E808324C080916700BB
:10034000883100F580916700803119F4AFDE809329
:100350006E0020916E008091670030E090E0409741
:1003600002C0359527958A95E2F720FF06C0E2E3A3
:10037000F0E080818061808305C0E2E3F0E080816D
:100380008F7E8083809167008F5F8093670080916C
:100390006700883111F410926700FF91EF91BF91CF
:1003A000AF919F918F917F916F915F914F913F910D
:1003B0002F910F900FBE0F901F901895E5E5F0E07C
:1003C00080818C608083EBE5F0E0808180688083B1
:1003D00080E181BB87EE82BB17BA8FEF88BBE3E574
:1003E000F0E0808184608083E9E5F0E080818260D4
:0A03F00080837894FFCFF894FFCFCC
:0403FA0001000000FE
:00000001FF
